:100000000C9434000C943E000C943E000C943E0082
:100010000C943E000C943E000C943E000C943E0068
:100020000C943E000C943E000C943E000C943E0058
:100030000C943E000C943E000C943E000C943E0048
:100040000C943E000C943E000C943E000C943E0038
:100050000C943E000C943E000C943E000C943E0028
:100060000C943E000C943E0011241FBECFEFD8E04C
:10007000DEBFCDBF0E9487000C948B000C94000063
:100080008AB18C618AB98BB1837E8BB9089534E0D3
:1000900088E020E19BB193279BB94FEF5BE792E9A2
:1000A000415050409040E1F700C000009BB19827BC
:1000B0009BB94FEF53ED90E3415050409040E1F732
:1000C00000C000009BB193279BB99BB198279BB9B7
:1000D0009BB192279BB94FEF5BE792E941505040AB
:1000E0009040E1F700C000009BB192279BB99BB103
:1000F00098279BB94FEF53ED90E34150504090400B
:10010000E1F700C000009BB198279BB9C3CF0E94C4
:0A01100040000E944700F894FFCF62
:00000001FF
