S01E00005461736B5F325F362D4269745F4C6175666C696368742E7372656306
S11300000C9434000C943E000C943E000C943E007E
S11300100C943E000C943E000C943E000C943E0064
S11300200C943E000C943E000C943E000C943E0054
S11300300C943E000C943E000C943E000C943E0044
S11300400C943E000C943E000C943E000C943E0034
S11300500C943E000C943E000C943E000C943E0024
S11300600C943E000C943E0011241FBECFEFD8E048
S1130070DEBFCDBF0E9470000C9474000C9400008D
S113008087B18F6387B988B1807C88B908956FEF91
S11300907FEF20E030E0E1E0F0E02115310519F0D8
S11300A02530310519F471956195710948B1CF0175
S11300B0022E02C0880F991F0A94E2F7942F982702
S11300C098B94FEF51EEA4E041505040A040E1F701
S11300D000C0000098B1892788B9260F371FDDCFEB
S10F00E00E9440000E944700F894FFCFEB
S9030000FC
